{
  "address": "0xb5cC8F4DC64149cc29E63f0AA99a3fAAd1A06FFB",
  "abi": [
    {
      "inputs": [
        {
          "internalType": "address",
          "name": "exampleExternalContractAddress",
          "type": "address"
        }
      ],
      "stateMutability": "nonpayable",
      "type": "constructor"
    },
    {
      "anonymous": false,
      "inputs": [
        {
          "indexed": true,
          "internalType": "address",
          "name": "staker",
          "type": "address"
        },
        {
          "indexed": false,
          "internalType": "uint256",
          "name": "amount",
          "type": "uint256"
        }
      ],
      "name": "Stake",
      "type": "event"
    },
    {
      "anonymous": false,
      "inputs": [
        {
          "indexed": true,
          "internalType": "address",
          "name": "staker",
          "type": "address"
        },
        {
          "indexed": false,
          "internalType": "uint256",
          "name": "amount",
          "type": "uint256"
        }
      ],
      "name": "Withdraw",
      "type": "event"
    },
    {
      "inputs": [
        {
          "internalType": "address",
          "name": "",
          "type": "address"
        }
      ],
      "name": "balances",
      "outputs": [
        {
          "internalType": "uint256",
          "name": "",
          "type": "uint256"
        }
      ],
      "stateMutability": "view",
      "type": "function"
    },
    {
      "inputs": [],
      "name": "deadline",
      "outputs": [
        {
          "internalType": "uint256",
          "name": "",
          "type": "uint256"
        }
      ],
      "stateMutability": "view",
      "type": "function"
    },
    {
      "inputs": [],
      "name": "exampleExternalContract",
      "outputs": [
        {
          "internalType": "contract ExampleExternalContract",
          "name": "",
          "type": "address"
        }
      ],
      "stateMutability": "view",
      "type": "function"
    },
    {
      "inputs": [],
      "name": "execute",
      "outputs": [],
      "stateMutability": "nonpayable",
      "type": "function"
    },
    {
      "inputs": [
        {
          "internalType": "address",
          "name": "",
          "type": "address"
        }
      ],
      "name": "isStaker",
      "outputs": [
        {
          "internalType": "bool",
          "name": "",
          "type": "bool"
        }
      ],
      "stateMutability": "view",
      "type": "function"
    },
    {
      "inputs": [],
      "name": "openForWithdraw",
      "outputs": [
        {
          "internalType": "bool",
          "name": "",
          "type": "bool"
        }
      ],
      "stateMutability": "view",
      "type": "function"
    },
    {
      "inputs": [],
      "name": "stake",
      "outputs": [],
      "stateMutability": "payable",
      "type": "function"
    },
    {
      "inputs": [],
      "name": "threshold",
      "outputs": [
        {
          "internalType": "uint256",
          "name": "",
          "type": "uint256"
        }
      ],
      "stateMutability": "view",
      "type": "function"
    },
    {
      "inputs": [],
      "name": "timeLeft",
      "outputs": [
        {
          "internalType": "uint256",
          "name": "",
          "type": "uint256"
        }
      ],
      "stateMutability": "view",
      "type": "function"
    },
    {
      "inputs": [],
      "name": "withdraw",
      "outputs": [],
      "stateMutability": "nonpayable",
      "type": "function"
    },
    {
      "stateMutability": "payable",
      "type": "receive"
    }
  ],
  "transactionHash": "0x313a3798425fab5dfd33be10155cde6a1d759910b4e52e3d2797f7ae146d4012",
  "args": [
    "0xea46eA59b8F4380FFF8FB2E7B5F8041dF25F322d"
  ],
  "numDeployments": 1,
  "solcInputHash": "14071cf0381f885d73761c2c045493e8",
  "bytecode": "0x60806040526002805460ff1916905534801561001a57600080fd5b506040516109fb3803806109fb8339810160408190526100399161006a565b600080546001600160a01b0319166001600160a01b038316179055610061426203f48061009a565b600155506100c1565b60006020828403121561007c57600080fd5b81516001600160a01b038116811461009357600080fd5b9392505050565b808201808211156100bb57634e487b7160e01b600052601160045260246000fd5b92915050565b61092b806100d06000396000f3fe6080604052600436106100955760003560e01c806342cde4e81161005957806342cde4e814610131578063614619541461014d5780636f1e8533146101625780639876a643146101a25780639f75f227146101bc57600080fd5b80631300a6d1146100a957806327e235e3146100d157806329dcb0cf146100fe5780633a4b66f1146101145780633ccfd60b1461011c57600080fd5b366100a4576100a26101f4565b005b600080fd5b3480156100b557600080fd5b506100be61034a565b6040519081526020015b60405180910390f35b3480156100dd57600080fd5b506100be6100ec366004610787565b60036020526000908152604090205481565b34801561010a57600080fd5b506100be60015481565b6100a26101f4565b34801561012857600080fd5b506100a261036e565b34801561013d57600080fd5b506100be670de0b6b3a764000081565b34801561015957600080fd5b506100a261049c565b34801561016e57600080fd5b5061019261017d366004610787565b60046020526000908152604090205460ff1681565b60405190151581526020016100c8565b3480156101ae57600080fd5b506002546101929060ff1681565b3480156101c857600080fd5b506000546101dc906001600160a01b031681565b6040516001600160a01b0390911681526020016100c8565b60015442106102435760405162461bcd60e51b815260206004820152601660248201527539ba30b5b4b733903832b934b7b21034b99037bb32b960511b60448201526064015b60405180910390fd5b600034116102935760405162461bcd60e51b815260206004820152601d60248201527f616d6f756e74206d7573742062652067726561746572207468616e2030000000604482015260640161023a565b3360009081526003602052604081205490036102c457336000908152600460205260409020805460ff191660011790555b33600090815260036020526040812080543492906102e39084906107cd565b909155505060405134815233907febedb8b3c678666e7f36970bc8f57abf6d8fa2e828c0da91ea5b75bf68ed101a9060200160405180910390a26103486040518060400160405280600981526020016803130b630b731b29d160bd1b815250476106d0565b565b6000600154421061035b5750600090565b4260015461036991906107e6565b905090565b60025460ff166103c05760405162461bcd60e51b815260206004820152601f60248201527f7769746864726177616c7320617265206e6f7420616c6c6f7765642079657400604482015260640161023a565b33600090815260036020526040902054806104165760405162461bcd60e51b81526020600482015260166024820152756e6f2062616c616e636520746f20776974686472617760501b604482015260640161023a565b3360008181526003602090815260408083208390556004909152808220805460ff191690555183156108fc0291849190818181858888f19350505050158015610463573d6000803e3d6000fd5b5060405181815233907f884edad9ce6fa2440d8a54cc123490eb96d2768479d49ff9c7366125a94243649060200160405180910390a250565b60008054906101000a90046001600160a01b03166001600160a01b0316639d9a7fe96040518163ffffffff1660e01b8152600401602060405180830381865afa1580156104ed573d6000803e3d6000fd5b505050506040513d601f19601f8201168201806040525081019061051191906107f9565b1561055e5760405162461bcd60e51b815260206004820152601b60248201527f636f6e747261637420616c726561647920636f6d706c65746564210000000000604482015260640161023a565b6105a26040518060400160405280601d81526020017f626c6f636b2e74696d657374616d70203e3d20646561646c696e653a20000000815250600154421015610719565b6001544210156105f45760405162461bcd60e51b815260206004820152601b60248201527f446561646c696e6520686173206e6f7420706173736564207965740000000000604482015260640161023a565b670de0b6b3a7640000471061069b5760008054906101000a90046001600160a01b03166001600160a01b031663522e1177476040518263ffffffff1660e01b81526004016000604051808303818588803b15801561065157600080fd5b505af1158015610665573d6000803e3d6000fd5b50506002805460ff1916905550506040805160608101909152602580825261034892506108a8602083013960025460ff16610719565b6002805460ff191660011790556040805160608101909152602980825261034891906108cd602083013960025460ff16610719565b61071582826040516024016106e6929190610861565b60408051601f198184030181529190526020810180516001600160e01b0316632d839cb360e21b17905261075a565b5050565b610715828260405160240161072f929190610883565b60408051601f198184030181529190526020810180516001600160e01b031663c3b5563560e01b1790525b61076381610766565b50565b60006a636f6e736f6c652e6c6f679050600080835160208501845afa505050565b60006020828403121561079957600080fd5b81356001600160a01b03811681146107b057600080fd5b9392505050565b634e487b7160e01b600052601160045260246000fd5b808201808211156107e0576107e06107b7565b92915050565b818103818111156107e0576107e06107b7565b60006020828403121561080b57600080fd5b815180151581146107b057600080fd5b6000815180845260005b8181101561084157602081850181015186830182015201610825565b506000602082860101526020601f19601f83011685010191505092915050565b604081526000610874604083018561081b565b90508260208301529392505050565b604081526000610896604083018561081b565b90508215156020830152939250505056fe7468726573686f6c642065786365656465642c206f70656e466f7257697468647261773a207468726573686f6c64206e6f742065786365656465642c206f70656e466f7257697468647261773a20a264697066735822122016d753412f3af2d9c4080392d009b2b484b0f0eae1301ec1cb1299970aa9ec5264736f6c63430008140033",
  "devdoc": {
    "kind": "dev",
    "methods": {},
    "version": 1
  },
  "userdoc": {
    "kind": "user",
    "methods": {},
    "version": 1
  },
  "storageLayout": {
    "storage": [
      {
        "astId": 19,
        "contract": "contracts/Staker.sol:Staker",
        "label": "exampleExternalContract",
        "offset": 0,
        "slot": "0",
        "type": "t_contract(ExampleExternalContract)12"
      },
      {
        "astId": 21,
        "contract": "contracts/Staker.sol:Staker",
        "label": "deadline",
        "offset": 0,
        "slot": "1",
        "type": "t_uint256"
      },
      {
        "astId": 24,
        "contract": "contracts/Staker.sol:Staker",
        "label": "openForWithdraw",
        "offset": 0,
        "slot": "2",
        "type": "t_bool"
      },
      {
        "astId": 28,
        "contract": "contracts/Staker.sol:Staker",
        "label": "balances",
        "offset": 0,
        "slot": "3",
        "type": "t_mapping(t_address,t_uint256)"
      },
      {
        "astId": 35,
        "contract": "contracts/Staker.sol:Staker",
        "label": "isStaker",
        "offset": 0,
        "slot": "4",
        "type": "t_mapping(t_address,t_bool)"
      }
    ],
    "types": {
      "t_address": {
        "encoding": "inplace",
        "label": "address",
        "numberOfBytes": "20"
      },
      "t_bool": {
        "encoding": "inplace",
        "label": "bool",
        "numberOfBytes": "1"
      },
      "t_contract(ExampleExternalContract)12": {
        "encoding": "inplace",
        "label": "contract ExampleExternalContract",
        "numberOfBytes": "20"
      },
      "t_mapping(t_address,t_bool)": {
        "encoding": "mapping",
        "key": "t_address",
        "label": "mapping(address => bool)",
        "numberOfBytes": "32",
        "value": "t_bool"
      },
      "t_mapping(t_address,t_uint256)": {
        "encoding": "mapping",
        "key": "t_address",
        "label": "mapping(address => uint256)",
        "numberOfBytes": "32",
        "value": "t_uint256"
      },
      "t_uint256": {
        "encoding": "inplace",
        "label": "uint256",
        "numberOfBytes": "32"
      }
    }
  }
}